{
  "contractName": "EthEhrSystem",
  "abi": [
    {
      "constant": true,
      "inputs": [
        {
          "name": "",
          "type": "uint256"
        }
      ],
      "name": "records",
      "outputs": [
        {
          "name": "id",
          "type": "uint256"
        },
        {
          "name": "firstName",
          "type": "string"
        },
        {
          "name": "lastName",
          "type": "string"
        }
      ],
      "payable": false,
      "stateMutability": "view",
      "type": "function",
      "signature": "0x34461067"
    },
    {
      "constant": true,
      "inputs": [],
      "name": "recordCount",
      "outputs": [
        {
          "name": "",
          "type": "uint256"
        }
      ],
      "payable": false,
      "stateMutability": "view",
      "type": "function",
      "signature": "0x900407bc"
    },
    {
      "inputs": [],
      "payable": false,
      "stateMutability": "nonpayable",
      "type": "constructor",
      "signature": "constructor"
    },
    {
      "anonymous": false,
      "inputs": [
        {
          "indexed": false,
          "name": "id",
          "type": "uint256"
        },
        {
          "indexed": false,
          "name": "firstName",
          "type": "string"
        },
        {
          "indexed": false,
          "name": "lastName",
          "type": "string"
        }
      ],
      "name": "RecordCreated",
      "type": "event",
      "signature": "0xebd3c3583e32d5e38e7f6c4e8576298722a54c4388c63e9bd0bd8503b905fb87"
    },
    {
      "constant": false,
      "inputs": [
        {
          "name": "_firstName",
          "type": "string"
        },
        {
          "name": "_lastName",
          "type": "string"
        }
      ],
      "name": "createRecord",
      "outputs": [],
      "payable": false,
      "stateMutability": "nonpayable",
      "type": "function",
      "signature": "0xc090b4df"
    }
  ],
  "bytecode": "0x60806040526000805534801561001457600080fd5b506100986040805190810160405280600481526020017f4a6f686e000000000000000000000000000000000000000000000000000000008152506040805190810160405280600581526020017f536d69746800000000000000000000000000000000000000000000000000000081525061009d640100000000026401000000009004565b6102b3565b60008054600190810180835560408051606081018252828152602080820188815282840188905293865284815291909420845181559151805192936100ea93908501929190910190610218565b5060408201518051610106916002840191602090910190610218565b509050507febd3c3583e32d5e38e7f6c4e8576298722a54c4388c63e9bd0bd8503b905fb876000548383604051808481526020018060200180602001838103835285818151815260200191508051906020019080838360005b8381101561017757818101518382015260200161015f565b50505050905090810190601f1680156101a45780820380516001836020036101000a031916815260200191505b50838103825284518152845160209182019186019080838360005b838110156101d75781810151838201526020016101bf565b50505050905090810190601f1680156102045780820380516001836020036101000a031916815260200191505b509550505050505060405180910390a15050565b828054600181600116156101000203166002900490600052602060002090601f016020900481019282601f1061025957805160ff1916838001178555610286565b82800160010185558215610286579182015b8281111561028657825182559160200191906001019061026b565b50610292929150610296565b5090565b6102b091905b80821115610292576000815560010161029c565b90565b61064d806102c26000396000f3fe6080604052600436106100565763ffffffff7c010000000000000000000000000000000000000000000000000000000060003504166334461067811461005b578063900407bc1461016a578063c090b4df14610191575b600080fd5b34801561006757600080fd5b506100856004803603602081101561007e57600080fd5b50356102cd565b604051808481526020018060200180602001838103835285818151815260200191508051906020019080838360005b838110156100cc5781810151838201526020016100b4565b50505050905090810190601f1680156100f95780820380516001836020036101000a031916815260200191505b50838103825284518152845160209182019186019080838360005b8381101561012c578181015183820152602001610114565b50505050905090810190601f1680156101595780820380516001836020036101000a031916815260200191505b509550505050505060405180910390f35b34801561017657600080fd5b5061017f610405565b60408051918252519081900360200190f35b34801561019d57600080fd5b506102cb600480360360408110156101b457600080fd5b8101906020810181356401000000008111156101cf57600080fd5b8201836020820111156101e157600080fd5b8035906020019184600183028401116401000000008311171561020357600080fd5b91908080601f016020809104026020016040519081016040528093929190818152602001838380828437600092019190915250929594936020810193503591505064010000000081111561025657600080fd5b82018360208201111561026857600080fd5b8035906020019184600183028401116401000000008311171561028a57600080fd5b91908080601f01602080910402602001604051908101604052809392919081815260200183838082843760009201919091525092955061040b945050505050565b005b600160208181526000928352604092839020805481840180548651600296821615610100026000190190911695909504601f810185900485028601850190965285855290949193929091908301828280156103695780601f1061033e57610100808354040283529160200191610369565b820191906000526020600020905b81548152906001019060200180831161034c57829003601f168201915b50505060028085018054604080516020601f60001961010060018716150201909416959095049283018590048502810185019091528181529596959450909250908301828280156103fb5780601f106103d0576101008083540402835291602001916103fb565b820191906000526020600020905b8154815290600101906020018083116103de57829003601f168201915b5050505050905083565b60005481565b600080546001908101808355604080516060810182528281526020808201888152828401889052938652848152919094208451815591518051929361045893908501929190910190610586565b5060408201518051610474916002840191602090910190610586565b509050507febd3c3583e32d5e38e7f6c4e8576298722a54c4388c63e9bd0bd8503b905fb876000548383604051808481526020018060200180602001838103835285818151815260200191508051906020019080838360005b838110156104e55781810151838201526020016104cd565b50505050905090810190601f1680156105125780820380516001836020036101000a031916815260200191505b50838103825284518152845160209182019186019080838360005b8381101561054557818101518382015260200161052d565b50505050905090810190601f1680156105725780820380516001836020036101000a031916815260200191505b509550505050505060405180910390a15050565b828054600181600116156101000203166002900490600052602060002090601f016020900481019282601f106105c757805160ff19168380011785556105f4565b828001600101855582156105f4579182015b828111156105f45782518255916020019190600101906105d9565b50610600929150610604565b5090565b61061e91905b80821115610600576000815560010161060a565b9056fea165627a7a72305820da1bcde81b1f5c56d484e06584399f880c28a940a1452d95eeed8644617efa520029",
  "source": "pragma solidity ^0.5.0;\n\ncontract EthEhrSystem {\n\tuint public recordCount = 0;\n\n\tstruct Record {\n\t\tuint id;\n\t\tstring firstName;\n\t\tstring lastName;\n\n\t}\n\n\n\n\tmapping(uint => Record) public records;\n\n\tevent RecordCreated(\n\t\tuint id,\n\t\tstring firstName,\n\t\tstring lastName\n\t);\n\n\tconstructor() public {\n\t\tcreateRecord(\"John\", \"Smith\");\n\t}\n\n\tfunction createRecord(string memory _firstName, string memory _lastName) public {\n\t\trecordCount ++;\n\t\trecords[recordCount] = Record(recordCount, _firstName, _lastName);\n\t\temit RecordCreated(recordCount, _firstName, _lastName);\n\t}\n\n}",
  "sourcePath": "/Users/georgemccarty/Desktop/IT6533_Blockchain_Project2/contracts/EthEhrSystem.sol",
  "compiler": {
    "name": "solc",
    "version": "0.5.0+commit.1d4f565a.Emscripten.clang"
  },
  "schemaVersion": "3.0.1",
  "updatedAt": "2021-04-02T12:26:20.750Z",
  "devdoc": {
    "methods": {}
  },
  "userdoc": {
    "methods": {}
  }
}