{
  "contractName": "EthEhrSystem",
  "abi": [
    {
      "constant": true,
      "inputs": [
        {
          "name": "",
          "type": "uint256"
        }
      ],
      "name": "records",
      "outputs": [
        {
          "name": "id",
          "type": "uint256"
        },
        {
          "name": "firstName",
          "type": "string"
        },
        {
          "name": "lastName",
          "type": "string"
        },
        {
          "name": "gender",
          "type": "string"
        }
      ],
      "payable": false,
      "stateMutability": "view",
      "type": "function",
      "signature": "0x34461067"
    },
    {
      "constant": true,
      "inputs": [],
      "name": "recordCount",
      "outputs": [
        {
          "name": "",
          "type": "uint256"
        }
      ],
      "payable": false,
      "stateMutability": "view",
      "type": "function",
      "signature": "0x900407bc"
    },
    {
      "inputs": [],
      "payable": false,
      "stateMutability": "nonpayable",
      "type": "constructor",
      "signature": "constructor"
    },
    {
      "anonymous": false,
      "inputs": [
        {
          "indexed": false,
          "name": "id",
          "type": "uint256"
        },
        {
          "indexed": false,
          "name": "firstName",
          "type": "string"
        },
        {
          "indexed": false,
          "name": "lastName",
          "type": "string"
        },
        {
          "indexed": false,
          "name": "gender",
          "type": "string"
        }
      ],
      "name": "RecordCreated",
      "type": "event",
      "signature": "0x0c9310d30fcb583a9d71ce0faef2afb26c786e832c7d102b39b9333b3bcb656e"
    },
    {
      "constant": false,
      "inputs": [
        {
          "name": "_firstName",
          "type": "string"
        },
        {
          "name": "_lastName",
          "type": "string"
        },
        {
          "name": "_gender",
          "type": "string"
        }
      ],
      "name": "createRecord",
      "outputs": [],
      "payable": false,
      "stateMutability": "nonpayable",
      "type": "function",
      "signature": "0xfacff5d2"
    }
  ],
  "bytecode": "0x60806040526000805534801561001457600080fd5b5060408051808201825260048082527f4a6f686e0000000000000000000000000000000000000000000000000000000060208084019190915283518085018552600581527f536d6974680000000000000000000000000000000000000000000000000000008183015284518086019095529184527f4d616c6500000000000000000000000000000000000000000000000000000000908401526100bf926401000000006100c4810204565b610365565b600080546001908101808355604080516080810182528281526020808201898152828401899052606083018890529386528481529190942084518155915180519293610118939085019291909101906102ca565b50604082015180516101349160028401916020909101906102ca565b50606082015180516101509160038401916020909101906102ca565b509050507f0c9310d30fcb583a9d71ce0faef2afb26c786e832c7d102b39b9333b3bcb656e60005484848460405180858152602001806020018060200180602001848103845287818151815260200191508051906020019080838360005b838110156101c65781810151838201526020016101ae565b50505050905090810190601f1680156101f35780820380516001836020036101000a031916815260200191505b50848103835286518152865160209182019188019080838360005b8381101561022657818101518382015260200161020e565b50505050905090810190601f1680156102535780820380516001836020036101000a031916815260200191505b50848103825285518152855160209182019187019080838360005b8381101561028657818101518382015260200161026e565b50505050905090810190601f1680156102b35780820380516001836020036101000a031916815260200191505b5097505050505050505060405180910390a1505050565b828054600181600116156101000203166002900490600052602060002090601f016020900481019282601f1061030b57805160ff1916838001178555610338565b82800160010185558215610338579182015b8281111561033857825182559160200191906001019061031d565b50610344929150610348565b5090565b61036291905b80821115610344576000815560010161034e565b90565b61085580620003756000396000f3fe6080604052600436106100565763ffffffff7c010000000000000000000000000000000000000000000000000000000060003504166334461067811461005b578063900407bc146101d0578063facff5d2146101f7575b600080fd5b34801561006757600080fd5b506100856004803603602081101561007e57600080fd5b50356103ba565b60405180858152602001806020018060200180602001848103845287818151815260200191508051906020019080838360005b838110156100d05781810151838201526020016100b8565b50505050905090810190601f1680156100fd5780820380516001836020036101000a031916815260200191505b50848103835286518152865160209182019188019080838360005b83811015610130578181015183820152602001610118565b50505050905090810190601f16801561015d5780820380516001836020036101000a031916815260200191505b50848103825285518152855160209182019187019080838360005b83811015610190578181015183820152602001610178565b50505050905090810190601f1680156101bd5780820380516001836020036101000a031916815260200191505b5097505050505050505060405180910390f35b3480156101dc57600080fd5b506101e5610582565b60408051918252519081900360200190f35b34801561020357600080fd5b506103b86004803603606081101561021a57600080fd5b81019060208101813564010000000081111561023557600080fd5b82018360208201111561024757600080fd5b8035906020019184600183028401116401000000008311171561026957600080fd5b91908080601f01602080910402602001604051908101604052809392919081815260200183838082843760009201919091525092959493602081019350359150506401000000008111156102bc57600080fd5b8201836020820111156102ce57600080fd5b803590602001918460018302840111640100000000831117156102f057600080fd5b91908080601f016020809104026020016040519081016040528093929190818152602001838380828437600092019190915250929594936020810193503591505064010000000081111561034357600080fd5b82018360208201111561035557600080fd5b8035906020019184600183028401116401000000008311171561037757600080fd5b91908080601f016020809104026020016040519081016040528093929190818152602001838380828437600092019190915250929550610588945050505050565b005b600160208181526000928352604092839020805481840180548651600296821615610100026000190190911695909504601f810185900485028601850190965285855290949193929091908301828280156104565780601f1061042b57610100808354040283529160200191610456565b820191906000526020600020905b81548152906001019060200180831161043957829003601f168201915b50505060028085018054604080516020601f60001961010060018716150201909416959095049283018590048502810185019091528181529596959450909250908301828280156104e85780601f106104bd576101008083540402835291602001916104e8565b820191906000526020600020905b8154815290600101906020018083116104cb57829003601f168201915b5050505060038301805460408051602060026001851615610100026000190190941693909304601f81018490048402820184019092528181529495949350908301828280156105785780601f1061054d57610100808354040283529160200191610578565b820191906000526020600020905b81548152906001019060200180831161055b57829003601f168201915b5050505050905084565b60005481565b6000805460019081018083556040805160808101825282815260208082018981528284018990526060830188905293865284815291909420845181559151805192936105dc9390850192919091019061078e565b50604082015180516105f891600284019160209091019061078e565b506060820151805161061491600384019160209091019061078e565b509050507f0c9310d30fcb583a9d71ce0faef2afb26c786e832c7d102b39b9333b3bcb656e60005484848460405180858152602001806020018060200180602001848103845287818151815260200191508051906020019080838360005b8381101561068a578181015183820152602001610672565b50505050905090810190601f1680156106b75780820380516001836020036101000a031916815260200191505b50848103835286518152865160209182019188019080838360005b838110156106ea5781810151838201526020016106d2565b50505050905090810190601f1680156107175780820380516001836020036101000a031916815260200191505b50848103825285518152855160209182019187019080838360005b8381101561074a578181015183820152602001610732565b50505050905090810190601f1680156107775780820380516001836020036101000a031916815260200191505b5097505050505050505060405180910390a1505050565b828054600181600116156101000203166002900490600052602060002090601f016020900481019282601f106107cf57805160ff19168380011785556107fc565b828001600101855582156107fc579182015b828111156107fc5782518255916020019190600101906107e1565b5061080892915061080c565b5090565b61082691905b808211156108085760008155600101610812565b9056fea165627a7a72305820585f95b4c3dd06ccb1ab52e1fd55500dd84a21b9ba7ab8b9f8550b2abb513a330029",
  "source": "pragma solidity ^0.5.0;\n\ncontract EthEhrSystem {\n\tuint public recordCount = 0;\n\n\tstruct Record {\n\t\tuint id;\n\t\tstring firstName;\n\t\tstring lastName;\n\t\tstring gender;\n\n\t}\n\n\n\n\tmapping(uint => Record) public records;\n\n\tevent RecordCreated(\n\t\tuint id,\n\t\tstring firstName,\n\t\tstring lastName,\n\t\tstring gender\n\t);\n\n\tconstructor() public {\n\t\tcreateRecord(\"John\", \"Smith\", \"Male\");\n\t}\n\n\tfunction createRecord(string memory _firstName, string memory _lastName, string memory _gender) public {\n\t\trecordCount ++;\n\t\trecords[recordCount] = Record(recordCount, _firstName, _lastName, _gender);\n\t\temit RecordCreated(recordCount, _firstName, _lastName, _gender);\n\t}\n\n}",
  "sourcePath": "/Users/georgemccarty/Desktop/IT6533_Blockchain_Project2/contracts/EthEhrSystem.sol",
  "compiler": {
    "name": "solc",
    "version": "0.5.0+commit.1d4f565a.Emscripten.clang"
  },
  "schemaVersion": "3.0.1",
  "updatedAt": "2021-04-06T15:13:22.656Z",
  "devdoc": {
    "methods": {}
  },
  "userdoc": {
    "methods": {}
  }
}