{
  "contractName": "EthEhrSystem",
  "abi": [
    {
      "constant": true,
      "inputs": [
        {
          "name": "",
          "type": "uint256"
        }
      ],
      "name": "records",
      "outputs": [
        {
          "name": "id",
          "type": "uint256"
        },
        {
          "name": "firstName",
          "type": "string"
        },
        {
          "name": "lastName",
          "type": "string"
        },
        {
          "name": "gender",
          "type": "string"
        },
        {
          "name": "encounterType",
          "type": "string"
        },
        {
          "name": "note",
          "type": "string"
        },
        {
          "name": "cpt",
          "type": "string"
        },
        {
          "name": "dxCode",
          "type": "string"
        }
      ],
      "payable": false,
      "stateMutability": "view",
      "type": "function",
      "signature": "0x34461067"
    },
    {
      "constant": true,
      "inputs": [],
      "name": "recordCount",
      "outputs": [
        {
          "name": "",
          "type": "uint256"
        }
      ],
      "payable": false,
      "stateMutability": "view",
      "type": "function",
      "signature": "0x900407bc"
    },
    {
      "inputs": [],
      "payable": false,
      "stateMutability": "nonpayable",
      "type": "constructor",
      "signature": "constructor"
    },
    {
      "anonymous": false,
      "inputs": [
        {
          "indexed": false,
          "name": "id",
          "type": "uint256"
        },
        {
          "indexed": false,
          "name": "firstName",
          "type": "string"
        },
        {
          "indexed": false,
          "name": "lastName",
          "type": "string"
        },
        {
          "indexed": false,
          "name": "gender",
          "type": "string"
        },
        {
          "indexed": false,
          "name": "encounterType",
          "type": "string"
        },
        {
          "indexed": false,
          "name": "note",
          "type": "string"
        },
        {
          "indexed": false,
          "name": "cpt",
          "type": "string"
        },
        {
          "indexed": false,
          "name": "dxCode",
          "type": "string"
        }
      ],
      "name": "RecordCreated",
      "type": "event",
      "signature": "0x67b8bc4b8a9e29d66992166f251c707f68202b91aec059f36662310d2ed6d84f"
    },
    {
      "constant": false,
      "inputs": [
        {
          "name": "_firstName",
          "type": "string"
        },
        {
          "name": "_lastName",
          "type": "string"
        },
        {
          "name": "_gender",
          "type": "string"
        },
        {
          "name": "_encounterType",
          "type": "string"
        },
        {
          "name": "_note",
          "type": "string"
        },
        {
          "name": "_cpt",
          "type": "string"
        },
        {
          "name": "_dxCode",
          "type": "string"
        }
      ],
      "name": "createRecord",
      "outputs": [],
      "payable": false,
      "stateMutability": "nonpayable",
      "type": "function",
      "signature": "0xe8d6e825"
    }
  ],
  "bytecode": "0x6080604052600080553480156200001557600080fd5b5060408051808201825260048082527f4a6f686e000000000000000000000000000000000000000000000000000000006020808401919091528351808501855260058082527f536d69746800000000000000000000000000000000000000000000000000000082840152855180870187529384527f4d616c6500000000000000000000000000000000000000000000000000000000848401528551808701875260088082527f455220566973697400000000000000000000000000000000000000000000000082860152875180890189528381527f5465737432000000000000000000000000000000000000000000000000000000818701528851808a018a529384527f3239383234000000000000000000000000000000000000000000000000000000848701528851808a019099529088527f5335332e31343541000000000000000000000000000000000000000000000000948801949094526200018c96929493909290919064010000000062000192810204565b62000690565b600080546001908101808355604080516101008101825282815260208082018d81528284018d9052606083018c9052608083018b905260a083018a905260c0830189905260e0830188905293865284815291909420845181559151805192936200020593908501929190910190620005eb565b506040820151805162000223916002840191602090910190620005eb565b506060820151805162000241916003840191602090910190620005eb565b50608082015180516200025f916004840191602090910190620005eb565b5060a082015180516200027d916005840191602090910190620005eb565b5060c082015180516200029b916006840191602090910190620005eb565b5060e08201518051620002b9916007840191602090910190620005eb565b509050507f67b8bc4b8a9e29d66992166f251c707f68202b91aec059f36662310d2ed6d84f60005488888888888888604051808981526020018060200180602001806020018060200180602001806020018060200188810388528f818151815260200191508051906020019080838360005b83811015620003455781810151838201526020016200032b565b50505050905090810190601f168015620003735780820380516001836020036101000a031916815260200191505b5088810387528e818151815260200191508051906020019080838360005b83811015620003ab57818101518382015260200162000391565b50505050905090810190601f168015620003d95780820380516001836020036101000a031916815260200191505b5088810386528d5181528d516020918201918f019080838360005b838110156200040e578181015183820152602001620003f4565b50505050905090810190601f1680156200043c5780820380516001836020036101000a031916815260200191505b5088810385528c5181528c516020918201918e019080838360005b838110156200047157818101518382015260200162000457565b50505050905090810190601f1680156200049f5780820380516001836020036101000a031916815260200191505b5088810384528b5181528b516020918201918d019080838360005b83811015620004d4578181015183820152602001620004ba565b50505050905090810190601f168015620005025780820380516001836020036101000a031916815260200191505b5088810383528a5181528a516020918201918c019080838360005b83811015620005375781810151838201526020016200051d565b50505050905090810190601f168015620005655780820380516001836020036101000a031916815260200191505b5088810382528951815289516020918201918b019080838360005b838110156200059a57818101518382015260200162000580565b50505050905090810190601f168015620005c85780820380516001836020036101000a031916815260200191505b509f5050505050505050505050505050505060405180910390a150505050505050565b828054600181600116156101000203166002900490600052602060002090601f016020900481019282601f106200062e57805160ff19168380011785556200065e565b828001600101855582156200065e579182015b828111156200065e57825182559160200191906001019062000641565b506200066c92915062000670565b5090565b6200068d91905b808211156200066c576000815560010162000677565b90565b61107c80620006a06000396000f3fe6080604052600436106100565763ffffffff7c010000000000000000000000000000000000000000000000000000000060003504166334461067811461005b578063900407bc1461036b578063e8d6e82514610392575b600080fd5b34801561006757600080fd5b506100856004803603602081101561007e57600080fd5b5035610771565b604051808981526020018060200180602001806020018060200180602001806020018060200188810388528f818151815260200191508051906020019080838360005b838110156100e05781810151838201526020016100c8565b50505050905090810190601f16801561010d5780820380516001836020036101000a031916815260200191505b5088810387528e818151815260200191508051906020019080838360005b8381101561014357818101518382015260200161012b565b50505050905090810190601f1680156101705780820380516001836020036101000a031916815260200191505b5088810386528d5181528d516020918201918f019080838360005b838110156101a357818101518382015260200161018b565b50505050905090810190601f1680156101d05780820380516001836020036101000a031916815260200191505b5088810385528c5181528c516020918201918e019080838360005b838110156102035781810151838201526020016101eb565b50505050905090810190601f1680156102305780820380516001836020036101000a031916815260200191505b5088810384528b5181528b516020918201918d019080838360005b8381101561026357818101518382015260200161024b565b50505050905090810190601f1680156102905780820380516001836020036101000a031916815260200191505b5088810383528a5181528a516020918201918c019080838360005b838110156102c35781810151838201526020016102ab565b50505050905090810190601f1680156102f05780820380516001836020036101000a031916815260200191505b5088810382528951815289516020918201918b019080838360005b8381101561032357818101518382015260200161030b565b50505050905090810190601f1680156103505780820380516001836020036101000a031916815260200191505b509f5050505050505050505050505050505060405180910390f35b34801561037757600080fd5b50610380610b79565b60408051918252519081900360200190f35b34801561039e57600080fd5b5061076f600480360360e08110156103b557600080fd5b8101906020810181356401000000008111156103d057600080fd5b8201836020820111156103e257600080fd5b8035906020019184600183028401116401000000008311171561040457600080fd5b91908080601f016020809104026020016040519081016040528093929190818152602001838380828437600092019190915250929594936020810193503591505064010000000081111561045757600080fd5b82018360208201111561046957600080fd5b8035906020019184600183028401116401000000008311171561048b57600080fd5b91908080601f01602080910402602001604051908101604052809392919081815260200183838082843760009201919091525092959493602081019350359150506401000000008111156104de57600080fd5b8201836020820111156104f057600080fd5b8035906020019184600183028401116401000000008311171561051257600080fd5b91908080601f016020809104026020016040519081016040528093929190818152602001838380828437600092019190915250929594936020810193503591505064010000000081111561056557600080fd5b82018360208201111561057757600080fd5b8035906020019184600183028401116401000000008311171561059957600080fd5b91908080601f01602080910402602001604051908101604052809392919081815260200183838082843760009201919091525092959493602081019350359150506401000000008111156105ec57600080fd5b8201836020820111156105fe57600080fd5b8035906020019184600183028401116401000000008311171561062057600080fd5b91908080601f016020809104026020016040519081016040528093929190818152602001838380828437600092019190915250929594936020810193503591505064010000000081111561067357600080fd5b82018360208201111561068557600080fd5b803590602001918460018302840111640100000000831117156106a757600080fd5b91908080601f01602080910402602001604051908101604052809392919081815260200183838082843760009201919091525092959493602081019350359150506401000000008111156106fa57600080fd5b82018360208201111561070c57600080fd5b8035906020019184600183028401116401000000008311171561072e57600080fd5b91908080601f016020809104026020016040519081016040528093929190818152602001838380828437600092019190915250929550610b7f945050505050565b005b600160208181526000928352604092839020805481840180548651600296821615610100026000190190911695909504601f8101859004850286018501909652858552909491939290919083018282801561080d5780601f106107e25761010080835404028352916020019161080d565b820191906000526020600020905b8154815290600101906020018083116107f057829003601f168201915b50505060028085018054604080516020601f600019610100600187161502019094169590950492830185900485028101850190915281815295969594509092509083018282801561089f5780601f106108745761010080835404028352916020019161089f565b820191906000526020600020905b81548152906001019060200180831161088257829003601f168201915b5050505060038301805460408051602060026001851615610100026000190190941693909304601f810184900484028201840190925281815294959493509083018282801561092f5780601f106109045761010080835404028352916020019161092f565b820191906000526020600020905b81548152906001019060200180831161091257829003601f168201915b5050505060048301805460408051602060026001851615610100026000190190941693909304601f81018490048402820184019092528181529495949350908301828280156109bf5780601f10610994576101008083540402835291602001916109bf565b820191906000526020600020905b8154815290600101906020018083116109a257829003601f168201915b5050505060058301805460408051602060026001851615610100026000190190941693909304601f8101849004840282018401909252818152949594935090830182828015610a4f5780601f10610a2457610100808354040283529160200191610a4f565b820191906000526020600020905b815481529060010190602001808311610a3257829003601f168201915b5050505060068301805460408051602060026001851615610100026000190190941693909304601f8101849004840282018401909252818152949594935090830182828015610adf5780601f10610ab457610100808354040283529160200191610adf565b820191906000526020600020905b815481529060010190602001808311610ac257829003601f168201915b5050505060078301805460408051602060026001851615610100026000190190941693909304601f8101849004840282018401909252818152949594935090830182828015610b6f5780601f10610b4457610100808354040283529160200191610b6f565b820191906000526020600020905b815481529060010190602001808311610b5257829003601f168201915b5050505050905088565b60005481565b600080546001908101808355604080516101008101825282815260208082018d81528284018d9052606083018c9052608083018b905260a083018a905260c0830189905260e083018890529386528481529190942084518155915180519293610bf093908501929190910190610fb5565b5060408201518051610c0c916002840191602090910190610fb5565b5060608201518051610c28916003840191602090910190610fb5565b5060808201518051610c44916004840191602090910190610fb5565b5060a08201518051610c60916005840191602090910190610fb5565b5060c08201518051610c7c916006840191602090910190610fb5565b5060e08201518051610c98916007840191602090910190610fb5565b509050507f67b8bc4b8a9e29d66992166f251c707f68202b91aec059f36662310d2ed6d84f60005488888888888888604051808981526020018060200180602001806020018060200180602001806020018060200188810388528f818151815260200191508051906020019080838360005b83811015610d22578181015183820152602001610d0a565b50505050905090810190601f168015610d4f5780820380516001836020036101000a031916815260200191505b5088810387528e818151815260200191508051906020019080838360005b83811015610d85578181015183820152602001610d6d565b50505050905090810190601f168015610db25780820380516001836020036101000a031916815260200191505b5088810386528d5181528d516020918201918f019080838360005b83811015610de5578181015183820152602001610dcd565b50505050905090810190601f168015610e125780820380516001836020036101000a031916815260200191505b5088810385528c5181528c516020918201918e019080838360005b83811015610e45578181015183820152602001610e2d565b50505050905090810190601f168015610e725780820380516001836020036101000a031916815260200191505b5088810384528b5181528b516020918201918d019080838360005b83811015610ea5578181015183820152602001610e8d565b50505050905090810190601f168015610ed25780820380516001836020036101000a031916815260200191505b5088810383528a5181528a516020918201918c019080838360005b83811015610f05578181015183820152602001610eed565b50505050905090810190601f168015610f325780820380516001836020036101000a031916815260200191505b5088810382528951815289516020918201918b019080838360005b83811015610f65578181015183820152602001610f4d565b50505050905090810190601f168015610f925780820380516001836020036101000a031916815260200191505b509f5050505050505050505050505050505060405180910390a150505050505050565b828054600181600116156101000203166002900490600052602060002090601f016020900481019282601f10610ff657805160ff1916838001178555611023565b82800160010185558215611023579182015b82811115611023578251825591602001919060010190611008565b5061102f929150611033565b5090565b61104d91905b8082111561102f5760008155600101611039565b9056fea165627a7a72305820e917296aeb8d79951180e1ef0db811d797f1fc8cadf0737e3d4e70ba0c10910c0029",
  "source": "pragma solidity ^0.5.0;\n\ncontract EthEhrSystem {\n\tuint public recordCount = 0;\n\n\tstruct Record {\n\t\tuint id;\n\t\tstring firstName;\n\t\tstring lastName;\n\t\tstring gender;\n\t\tstring encounterType;\n\t\tstring note;\n\t\tstring cpt;\n\t\tstring dxCode;\n\n\t}\n\n\n\n\tmapping(uint => Record) public records;\n\n\tevent RecordCreated(\n\t\tuint id,\n\t\tstring firstName,\n\t\tstring lastName,\n\t\tstring gender,\n\t\tstring encounterType,\n\t\tstring note,\n\t\tstring cpt,\n\t\tstring dxCode\n\t);\n\n\tconstructor() public {\n\t\tcreateRecord(\"John\", \"Smith\", \"Male\",\"ER Visit\",\"Test2\", \"29824\",\"S53.145A\");\n\t}\n\n\tfunction createRecord(string memory _firstName, string memory _lastName, string memory _gender, string memory _encounterType, string memory _note, string memory _cpt, string memory _dxCode) public {\n\t\trecordCount ++;\n\t\trecords[recordCount] = Record(recordCount, _firstName, _lastName, _gender, _encounterType, _note, _cpt, _dxCode);\n\t\temit RecordCreated(recordCount, _firstName, _lastName, _gender, _encounterType, _note, _cpt, _dxCode);\n\t}\n\n}",
  "sourcePath": "/Users/georgemccarty/Desktop/IT6533_Blockchain_Project2/contracts/EthEhrSystem.sol",
  "compiler": {
    "name": "solc",
    "version": "0.5.0+commit.1d4f565a.Emscripten.clang"
  },
  "schemaVersion": "3.0.1",
  "updatedAt": "2021-04-18T00:18:22.773Z",
  "devdoc": {
    "methods": {}
  },
  "userdoc": {
    "methods": {}
  }
}