{
  "contractName": "EthEhrSystem",
  "abi": [
    {
      "inputs": [],
      "payable": false,
      "stateMutability": "nonpayable",
      "type": "constructor"
    },
    {
      "constant": true,
      "inputs": [],
      "name": "recordCount",
      "outputs": [
        {
          "internalType": "uint256",
          "name": "",
          "type": "uint256"
        }
      ],
      "payable": false,
      "stateMutability": "view",
      "type": "function"
    },
    {
      "constant": true,
      "inputs": [
        {
          "internalType": "uint256",
          "name": "",
          "type": "uint256"
        }
      ],
      "name": "records",
      "outputs": [
        {
          "internalType": "uint256",
          "name": "id",
          "type": "uint256"
        },
        {
          "internalType": "string",
          "name": "firstName",
          "type": "string"
        },
        {
          "internalType": "string",
          "name": "lastName",
          "type": "string"
        },
        {
          "internalType": "string",
          "name": "addressed",
          "type": "string"
        },
        {
          "internalType": "string",
          "name": "city",
          "type": "string"
        },
        {
          "internalType": "string",
          "name": "state",
          "type": "string"
        },
        {
          "internalType": "string",
          "name": "zip",
          "type": "string"
        },
        {
          "internalType": "string",
          "name": "phone",
          "type": "string"
        }
      ],
      "payable": false,
      "stateMutability": "view",
      "type": "function"
    },
    {
      "constant": false,
      "inputs": [
        {
          "internalType": "string",
          "name": "_firstName",
          "type": "string"
        },
        {
          "internalType": "string",
          "name": "_lastName",
          "type": "string"
        },
        {
          "internalType": "string",
          "name": "_addressed",
          "type": "string"
        },
        {
          "internalType": "string",
          "name": "_city",
          "type": "string"
        },
        {
          "internalType": "string",
          "name": "_state",
          "type": "string"
        },
        {
          "internalType": "string",
          "name": "_zip",
          "type": "string"
        },
        {
          "internalType": "string",
          "name": "_phone",
          "type": "string"
        }
      ],
      "name": "createRecord",
      "outputs": [],
      "payable": false,
      "stateMutability": "nonpayable",
      "type": "function"
    }
  ],
  "bytecode": "0x6080604052600080553480156200001557600080fd5b506200010a604051806040016040528060048152602001632537b43760e11b815250604051806040016040528060058152602001640a6dad2e8d60db1b8152506040518060400160405280601081526020016f0c4c8cc819dc99595b881cdd1c99595d60821b8152506040518060400160405280600a815260200169736d69746876696c6c6560b01b81525060405180604001604052806002815260200161476160f01b815250604051806040016040528060068152602001651899199a1a9b60d11b8152506040518060400160405280600a8152602001690313233343536373839360b41b8152506200011060201b60201c565b620002e8565b600080546001908101808355604080516101008101825282815260208082018d81528284018d9052606083018c9052608083018b905260a083018a905260c0830189905260e083018890529386528481529190942084518155915180519293620001839390850192919091019062000243565b5060408201518051620001a191600284019160209091019062000243565b5060608201518051620001bf91600384019160209091019062000243565b5060808201518051620001dd91600484019160209091019062000243565b5060a08201518051620001fb91600584019160209091019062000243565b5060c082015180516200021991600684019160209091019062000243565b5060e082015180516200023791600784019160209091019062000243565b50505050505050505050565b828054600181600116156101000203166002900490600052602060002090601f016020900481019282601f106200028657805160ff1916838001178555620002b6565b82800160010185558215620002b6579182015b82811115620002b657825182559160200191906001019062000299565b50620002c4929150620002c8565b5090565b620002e591905b80821115620002c45760008155600101620002cf565b90565b610d2a80620002f86000396000f3fe608060405234801561001057600080fd5b50600436106100415760003560e01c80633446106714610046578063900407bc14610349578063e8d6e82514610363575b600080fd5b6100636004803603602081101561005c57600080fd5b5035610727565b604051808981526020018060200180602001806020018060200180602001806020018060200188810388528f818151815260200191508051906020019080838360005b838110156100be5781810151838201526020016100a6565b50505050905090810190601f1680156100eb5780820380516001836020036101000a031916815260200191505b5088810387528e818151815260200191508051906020019080838360005b83811015610121578181015183820152602001610109565b50505050905090810190601f16801561014e5780820380516001836020036101000a031916815260200191505b5088810386528d5181528d516020918201918f019080838360005b83811015610181578181015183820152602001610169565b50505050905090810190601f1680156101ae5780820380516001836020036101000a031916815260200191505b5088810385528c5181528c516020918201918e019080838360005b838110156101e15781810151838201526020016101c9565b50505050905090810190601f16801561020e5780820380516001836020036101000a031916815260200191505b5088810384528b5181528b516020918201918d019080838360005b83811015610241578181015183820152602001610229565b50505050905090810190601f16801561026e5780820380516001836020036101000a031916815260200191505b5088810383528a5181528a516020918201918c019080838360005b838110156102a1578181015183820152602001610289565b50505050905090810190601f1680156102ce5780820380516001836020036101000a031916815260200191505b5088810382528951815289516020918201918b019080838360005b838110156103015781810151838201526020016102e9565b50505050905090810190601f16801561032e5780820380516001836020036101000a031916815260200191505b509f5050505050505050505050505050505060405180910390f35b610351610b2f565b60408051918252519081900360200190f35b610725600480360360e081101561037957600080fd5b810190602081018135600160201b81111561039357600080fd5b8201836020820111156103a557600080fd5b803590602001918460018302840111600160201b831117156103c657600080fd5b91908080601f0160208091040260200160405190810160405280939291908181526020018383808284376000920191909152509295949360208101935035915050600160201b81111561041857600080fd5b82018360208201111561042a57600080fd5b803590602001918460018302840111600160201b8311171561044b57600080fd5b91908080601f0160208091040260200160405190810160405280939291908181526020018383808284376000920191909152509295949360208101935035915050600160201b81111561049d57600080fd5b8201836020820111156104af57600080fd5b803590602001918460018302840111600160201b831117156104d057600080fd5b91908080601f0160208091040260200160405190810160405280939291908181526020018383808284376000920191909152509295949360208101935035915050600160201b81111561052257600080fd5b82018360208201111561053457600080fd5b803590602001918460018302840111600160201b8311171561055557600080fd5b91908080601f0160208091040260200160405190810160405280939291908181526020018383808284376000920191909152509295949360208101935035915050600160201b8111156105a757600080fd5b8201836020820111156105b957600080fd5b803590602001918460018302840111600160201b831117156105da57600080fd5b91908080601f0160208091040260200160405190810160405280939291908181526020018383808284376000920191909152509295949360208101935035915050600160201b81111561062c57600080fd5b82018360208201111561063e57600080fd5b803590602001918460018302840111600160201b8311171561065f57600080fd5b91908080601f0160208091040260200160405190810160405280939291908181526020018383808284376000920191909152509295949360208101935035915050600160201b8111156106b157600080fd5b8201836020820111156106c357600080fd5b803590602001918460018302840111600160201b831117156106e457600080fd5b91908080601f016020809104026020016040519081016040528093929190818152602001838380828437600092019190915250929550610b35945050505050565b005b600160208181526000928352604092839020805481840180548651600296821615610100026000190190911695909504601f810185900485028601850190965285855290949193929091908301828280156107c35780601f10610798576101008083540402835291602001916107c3565b820191906000526020600020905b8154815290600101906020018083116107a657829003601f168201915b50505060028085018054604080516020601f60001961010060018716150201909416959095049283018590048502810185019091528181529596959450909250908301828280156108555780601f1061082a57610100808354040283529160200191610855565b820191906000526020600020905b81548152906001019060200180831161083857829003601f168201915b5050505060038301805460408051602060026001851615610100026000190190941693909304601f81018490048402820184019092528181529495949350908301828280156108e55780601f106108ba576101008083540402835291602001916108e5565b820191906000526020600020905b8154815290600101906020018083116108c857829003601f168201915b5050505060048301805460408051602060026001851615610100026000190190941693909304601f81018490048402820184019092528181529495949350908301828280156109755780601f1061094a57610100808354040283529160200191610975565b820191906000526020600020905b81548152906001019060200180831161095857829003601f168201915b5050505060058301805460408051602060026001851615610100026000190190941693909304601f8101849004840282018401909252818152949594935090830182828015610a055780601f106109da57610100808354040283529160200191610a05565b820191906000526020600020905b8154815290600101906020018083116109e857829003601f168201915b5050505060068301805460408051602060026001851615610100026000190190941693909304601f8101849004840282018401909252818152949594935090830182828015610a955780601f10610a6a57610100808354040283529160200191610a95565b820191906000526020600020905b815481529060010190602001808311610a7857829003601f168201915b5050505060078301805460408051602060026001851615610100026000190190941693909304601f8101849004840282018401909252818152949594935090830182828015610b255780601f10610afa57610100808354040283529160200191610b25565b820191906000526020600020905b815481529060010190602001808311610b0857829003601f168201915b5050505050905088565b60005481565b600080546001908101808355604080516101008101825282815260208082018d81528284018d9052606083018c9052608083018b905260a083018a905260c0830189905260e083018890529386528481529190942084518155915180519293610ba693908501929190910190610c5a565b5060408201518051610bc2916002840191602090910190610c5a565b5060608201518051610bde916003840191602090910190610c5a565b5060808201518051610bfa916004840191602090910190610c5a565b5060a08201518051610c16916005840191602090910190610c5a565b5060c08201518051610c32916006840191602090910190610c5a565b5060e08201518051610c4e916007840191602090910190610c5a565b50505050505050505050565b828054600181600116156101000203166002900490600052602060002090601f016020900481019282601f10610c9b57805160ff1916838001178555610cc8565b82800160010185558215610cc8579182015b82811115610cc8578251825591602001919060010190610cad565b50610cd4929150610cd8565b5090565b610cf291905b80821115610cd45760008155600101610cde565b9056fea265627a7a7231582022f845e6f43f367f9d2a2c45ae371d8a557d9fb2d883187ea272c6acfa1a32c264736f6c63430005100032",
  "source": "pragma solidity ^0.5.0;\n\ncontract EthEhrSystem {\n\tuint public recordCount = 0;\n\n\tstruct Record {\n\t\tuint id;\n\t\tstring firstName;\n\t\tstring lastName;\n\t\tstring addressed;\n\t\tstring city;\n\t\tstring state;\n\t\tstring zip;\n\t\tstring phone;\n\t\t\n\n\t}\n\n\n\n\tmapping(uint => Record) public records;\n\n\tconstructor() public {\n\t\tcreateRecord(\"John\", \"Smith\", \"123 green street\", \"smithville\", \"Ga\", \"123456\", \"1234567890\");\n\t}\n\n\tfunction createRecord(string memory _firstName, string memory _lastName, string memory _addressed, string memory _city, string memory _state, string memory _zip, string memory _phone) public {\n\t\trecordCount ++;\n\t\trecords[recordCount] = Record(recordCount, _firstName, _lastName, _addressed, _city, _state, _zip, _phone); \n\t}\n\n}",
  "sourcePath": "D:/bllockchain/IT6533_Blockchain_Project-master/contracts/EthEhrSystem.sol",
  "compiler": {
    "name": "solc",
    "version": "0.5.16+commit.9c3226ce.Emscripten.clang"
  },
  "schemaVersion": "3.3.4",
  "updatedAt": "2021-04-14T14:01:48.436Z",
  "networkType": "ethereum",
  "devdoc": {
    "methods": {}
  },
  "userdoc": {
    "methods": {}
  }
}